:100000000FE50DBF02E00EBF112402D0FFCF0000AC
:10001000BF92CF92DF92EF92FF920F931F93CF93F5
:10002000DF93CDB7DEB7A3970FB6F894DEBF0FBE50
:10003000CDBFF4B614BECE010296212DA22FBB2750
:10004000A80FB91F1C9223952032C1F725E52BA3D9
:100050002FE02AA33BA14AA16BA17AA1EBA1FAA1AF
:10006000ABA1BAA12BA12F7751E0253511E009F002
:10007000112D2BA12E7F243521E009F0212D2123E4
:10008000BA2BBF35A1E009F0A12D2A23FE23F530BC
:10009000E1E009F0E12D2E2376277A3561E009F0C1
:1000A000612D2623430F443609F0512D252360E6A8
:1000B00070E032E0E12DAE2FBB27AA50BD4F4C912E
:1000C000DB014D93A115B307E0F3DB015C915417FD
:1000D00069F41196A115B307C8F3E395E43059F715
:1000E00031E03983AFEFE12CBA2F03C0E52E312D7B
:1000F000398330B53B7F30BD13BE12BE32E038BF0E
:1001000031E033BFEFEFFFEF38B73270303021F41A
:100110003197E115F105C1F713BE78B730B5377FD8
:1001200030BD10BE3FEF3DBD1FBC34E038BF31E0F5
:1001300030BF7695EFEFFFEF38B73470303021F4F1
:100140003197E115F105C1F710BE18B71695169550
:100150003CB332703030E1F73FED3EBB31E03FBBA6
:10016000E09A7170DDB23CB332703030E1F73FEDB0
:100170003EBB31E03FBB1DBAF894E29AE19A3CB332
:1001800032703030E1F73FED3EBB31E03FBBE09AEB
:10019000CDB23CB332703030E1F73FED3EBB31E0E1
:1001A0003FBB3FEF3DBBF894E29AE19A3CB332701B
:1001B0003030E1F73FED3EBB31E03FBBE09ABDB2EE
:1001C0006CB362706030E1F76FED6EBB61E06FBBE6
:1001D00065EA6DBBF894E29AE19A6CB362706030A4
:1001E000E1F76FED6EBB61E06FBBE09A0DB36CB3EE
:1001F00062706030E1F76FED6EBB61E06FBBDDBA3E
:10020000F894E29AE19A6CB362706030E1F76FEDB6
:100210006EBB61E06FBBE09AEDB3FE86F5EAFD8749
:1002200039813887F22F2F836E8322E538E53D83AD
:100230002C8321E436E53B832A83ED15E1E009F0C8
:10024000E12D053A01E009F0012DE0232B2D2F3F90
:1002500031E02F2F09F0312DE3233C2D303009F010
:10026000612DE623EB8711701A8779877030312D65
:1002700011F01E23312F2170203009F4312D541735
:10028000212D09F4232F2C8721B7DE8AED8A4C8B90
:10029000BB8BAA8B40EA51E0598B488B2F8727B53F
:1002A0002F8B20B53AE539A340E050E058A34F8F9B
:1002B0005E8F4D8F41E350E05C8F4B8F48E457E5F4
:1002C0005A8F498F288F21E0312DA32FBB27A80FEC
:1002D000B91F4C915CB352705030E1F7532F506E00
:1002E0005EBB2FBB4DBBF894E29AE19A3395303256
:0A02F00061F70000FECF00FFAA55E1
:00000001FF
